:020000040800F2
:100000000028002039180008351600083B160008A3
:1000100041160008471600084D16000800000000B1
:10002000000000000000000000000000531600085F
:100030005F160008000000006B1600087716000825
:10004000811800088118000881180008811800082C
:10005000811800088118000881180008811800081C
:10006000811800088118000881180008811800080C
:1000700081180008811800088118000881180008FC
:1000800081180008811800088118000881180008EC
:1000900081180008811800088118000881180008DC
:1000A00081180008811800088118000881180008CC
:1000B000851600088118000800000000811800085B
:1000C00081180008000000000000000081180008EE
:1000D00000000000811800089916000800000000C8
:1000E000811800088118000881180008000000002D
:1000F0000000000000000000000000000000000000
:0C01000000000000000000005FF808F1A3
:1001100010B5054C237833B9044B13B10448AFF341
:1001200000800123237010BDDC01002000000000CE
:100130007472000808B5034B1BB103490348AFF3C1
:10014000008008BD00000000E0010020747200087B
:10015000034613F8012B002AFBD1181A0138704707
:1001600081F0004102E000BF83F0004330B54FEA68
:1001700041044FEA430594EA050F08BF90EA020FD5
:100180001FBF54EA000C55EA020C7FEA645C7FEA68
:10019000655C00F0E2804FEA5454D4EB5555B8BF8B
:1001A0006D420CDD2C4480EA020281EA030382EAFC
:1001B000000083EA010180EA020281EA0303362D8E
:1001C00088BF30BD11F0004F4FEA01314FF4801C61
:1001D0004CEA113102D0404261EB410113F0004F73
:1001E0004FEA03334CEA133302D0524263EB43032A
:1001F00094EA050F00F0A780A4F10104D5F1200EC8
:100200000DDB02FA0EFC22FA05F2801841F1000122
:1002100003FA0EF2801843FA05F359410EE0A5F1F6
:1002200020050EF1200E012A03FA0EFC28BF4CF027
:10023000020C43FA05F3C01851EBE37101F00045DD
:1002400007D54FF0000EDCF1000C7EEB00006EEBEA
:100250000101B1F5801F1BD3B1F5001F0CD3490874
:100260005FEA30004FEA3C0C04F101044FEA4452CB
:1002700012F5800F80F09A80BCF1004F08BF5FEA52
:10028000500C50F1000041EB045141EA050130BD32
:100290005FEA4C0C404141EB0101013C28BFB1F544
:1002A000801FE9D291F0000F04BF01460020B1FA8F
:1002B00081F308BF2033A3F10B03B3F120020CDA62
:1002C0000C3208DD02F1140CC2F10C0201FA0CF040
:1002D00021FA02F10CE002F11402D8BFC2F1200CA5
:1002E00001FA02F120FA0CFCDCBF41EA0C0190405B
:1002F000E41AA2BF01EB0451294330BD6FEA0404A4
:100300001F3C1CDA0C340EDC04F11404C4F120028E
:1003100020FA04F001FA02F340EA030021FA04F3A0
:1003200045EA030130BDC4F10C04C4F1200220FAF7
:1003300002F001FA04F340EA0300294630BD21FA35
:1003400004F0294630BD94F0000F83F4801306BFFB
:1003500081F480110134013D4EE77FEA645C18BFEF
:100360007FEA655C29D094EA050F08BF90EA020F86
:1003700005D054EA000C04BF1946104630BD91EA7E
:10038000030F1EBF0021002030BD5FEA545C05D181
:100390004000494128BF41F0004130BD14F58004C0
:1003A0003CBF01F5801130BD01F0004545F0FE4134
:1003B00041F470014FF0000030BD7FEA645C1ABF69
:1003C000194610467FEA655C1CBF0B46024650EAA0
:1003D000013406BF52EA033591EA030F41F40021CC
:1003E00030BD00BF90F0000F04BF0021704730B552
:1003F0004FF4806404F132044FF000054FF0000127
:1004000050E700BF90F0000F04BF0021704730B5E7
:100410004FF4806404F1320410F0004548BF4042BC
:100420004FF000013EE700BF42004FEAE2014FEA11
:1004300031014FEA02701FBF12F07F4393F07F4FEC
:1004400081F06051704732F07F4208BF704793F0EF
:100450007F4F04BF41F40021704730B54FF4607402
:1004600001F0004521F000411CE700BF50EA010205
:1004700008BF704730B54FF000050AE050EA0102AE
:1004800008BF704730B511F0004502D5404261EB1E
:1004900041014FF4806404F132045FEA915C3FF45F
:1004A000D8AE4FF003025FEADC0C18BF03325FEAFC
:1004B000DC0C18BF033202EBDC02C2F1200300FAAD
:1004C00003FC20FA02F001FA03FE40EA0E0021FAD2
:1004D00002F11444BDE600BF70B54FF0FF0C4CF4C0
:1004E000E06C1CEA11541DBF1CEA135594EA0C0F72
:1004F00095EA0C0F00F0DEF82C4481EA030621EAAD
:100500004C5123EA4C5350EA013518BF52EA0335E7
:1005100041F4801143F4801338D0A0FB02CE4FF099
:100520000005E1FB02E506F00042E0FB03E54FF0C9
:100530000006E1FB03569CF0000F18BF4EF0010EC1
:10054000A4F1FF04B6F5007F64F5407404D25FEABD
:100550004E0E6D4146EB060642EAC62141EA555170
:100560004FEAC52040EA5E504FEACE2EB4F1FD0CB2
:1005700088BFBCF5E06F1ED8BEF1004F08BF5FEA30
:10058000500E50F1000041EB045170BD06F00046E2
:1005900046EA010140EA020081EA0301B4EB5C048F
:1005A000C2BFD4EB0C0541EA045170BD41F4801187
:1005B0004FF0000E013C00F3AB8014F1360FDEBFAC
:1005C000002001F0004170BDC4F10004203C35DA88
:1005D0000C341BDC04F11404C4F1200500FA05F30B
:1005E00020FA04F001FA05F240EA020001F00042AC
:1005F00021F0004110EBD37021FA04F642EB060122
:100600005EEA430E08BF20EAD37070BDC4F10C044B
:10061000C4F1200500FA04F320FA05F001FA04F20F
:1006200040EA020001F0004110EBD37041F10001FB
:100630005EEA430E08BF20EAD37070BDC4F1200506
:1006400000FA05F24EEA020E20FA04F301FA05F26E
:1006500043EA020321FA04F001F0004121FA04F216
:1006600020EA020000EBD3705EEA430E08BF20EAE6
:10067000D37070BD94F0000F0FD101F00046400020
:1006800041EB010111F4801F08BF013CF7D041EAA2
:10069000060195F0000F18BF704703F000465200A6
:1006A00043EB030313F4801F08BF013DF7D043EA77
:1006B0000603704794EA0C0F0CEA135518BF95EA2D
:1006C0000C0F0CD050EA410618BF52EA4306D1D1B4
:1006D00081EA030101F000414FF0000070BD50EAD3
:1006E000410606BF1046194652EA430619D094EA5D
:1006F0000C0F02D150EA013613D195EA0C0F05D147
:1007000052EA03361CBF104619460AD181EA03019A
:1007100001F0004141F0FE4141F470014FF0000052
:1007200070BD41F0FE4141F4780170BD70B54FF0ED
:10073000FF0C4CF4E06C1CEA11541DBF1CEA13556D
:1007400094EA0C0F95EA0C0F00F0A7F8A4EB05044F
:1007500081EA030E52EA03354FEA013100F0888046
:100760004FEA03334FF0805545EA131343EA12630F
:100770004FEA022245EA111545EA10654FEA0026C4
:100780000EF000419D4208BF964244F1FD0404F57D
:10079000407402D25B084FEA3202B61A65EB0305D9
:1007A0005B084FEA32024FF480104FF4002CB6EB96
:1007B000020E75EB030E22BFB61A754640EA0C0016
:1007C0005B084FEA3202B6EB020E75EB030E22BF56
:1007D000B61A754640EA5C005B084FEA3202B6EB97
:1007E000020E75EB030E22BFB61A754640EA9C0056
:1007F0005B084FEA3202B6EB020E75EB030E22BF26
:10080000B61A754640EADC0055EA060E18D04FEAE3
:10081000051545EA16754FEA06164FEAC30343EA83
:1008200052734FEAC2025FEA1C1CC0D111F4801F50
:100830000BD141EA00014FF000004FF0004CB6E749
:1008400011F4801F04BF01430020B4F1FD0C88BFE8
:10085000BCF5E06F3FF6AFAEB5EB030C04BFB6EBF3
:10086000020C5FEA500C50F1000041EB045170BDE6
:100870000EF0004E4EEA113114EB5C04C2BFD4EB13
:100880000C0541EA045170BD41F480114FF0000E97
:10089000013C90E645EA060E8DE60CEA135594EA13
:1008A0000C0F08BF95EA0C0F3FF43BAF94EA0C0F16
:1008B0000AD150EA01347FF434AF95EA0C0F7FF48B
:1008C00025AF104619462CE795EA0C0F06D152EADF
:1008D00003353FF4FDAE1046194622E750EA4106C3
:1008E00018BF52EA43067FF4C5AE50EA41047FF4D4
:1008F0000DAF52EA43057FF4EBAE12E74FF0FF3C39
:1009000006E000BF4FF0010C02E000BF4FF0010C09
:100910004DF804CD4FEA410C7FEA6C5C4FEA430C82
:1009200018BF7FEA6C5C1BD001B050EA410C0CBFD1
:1009300052EA430C91EA030F02BF90EA020F002033
:10094000704710F1000F91EA030F58BF994208BF9A
:1009500090422CBFD8176FEAE37040F00100704757
:100960004FEA410C7FEA6C5C02D150EA013C07D1AE
:100970004FEA430C7FEA6C5CD6D152EA033CD3D0F9
:100980005DF8040B704700BF8446104662468C46F3
:100990001946634600E000BF01B5FFF7B7FF002826
:1009A00048BF10F1000F01BD4DF808EDFFF7F4FF4F
:1009B0000CBF012000205DF808FB00BF4DF808EDDA
:1009C000FFF7EAFF34BF012000205DF808FB00BFFD
:1009D0004DF808EDFFF7E0FF94BF012000205DF81F
:1009E00008FB00BF4DF808EDFFF7CEFF94BF0120D4
:1009F00000205DF808FB00BF4DF808EDFFF7C4FFCD
:100A000034BF012000205DF808FB00BF4FEA410C15
:100A10007FEA6C5C02D150EA013C0AD14FEA430CF8
:100A20007FEA6C5C02D152EA033C02D14FF0000035
:100A300070474FF0010070474FEA410212F5001273
:100A400015D211D56FF47873B3EB625212D94FEA15
:100A5000C12343F0004343EA505311F0004F23FAFF
:100A600002F018BF404270474FF00000704750EA54
:100A7000013005D111F0004008BF6FF00040704711
:100A80004FF00000704700BF80B483B000AF002378
:100A9000FB711FE0FB79144A012102F82310FB7956
:100AA000114A9B00134401225A70FB790E4A9B00A5
:100AB000134401229A70FB790B4A9B0013440122D4
:100AC000DA70FB79094A4FF4967142F82310FB79EA
:100AD0000133FB71FB79002BDCD000BF00BF0C376A
:100AE000BD4680BC704700BF3402002038020020A1
:100AF00080B483B000AF0346FB71FB790D4A9B00C5
:100B000013445B78002B0FD1FB790A4A9B001344F6
:100B10009B78002B08D1FB79064A9B001344DB78B5
:100B2000002B01D1002300E0012318460C37BD46FD
:100B300080BC70473402002090B583B000AF0346FC
:100B4000FB71FB79FA7936499B000B44987834495C
:100B500093000B4402465A70FB79FA7930499B00A6
:100B60000B44D8782E4993000B4402469A70FB79C7
:100B70004FF4005202FA03F39BB2FC79194629485C
:100B800001F042FD03461946254AA30013440A46D4
:100B9000DA70FB791846FFF7ABFF0346002B2FD125
:100BA000FB791F4A12F82330012B0FD1FB791E4A23
:100BB0000121D154FB791A4A002102F82310FB7954
:100BC0001A4A4FF4967142F8231024E0FB79174A31
:100BD00052F82330002B0AD1FB79154A0121D15458
:100BE000FB79124A4FF4967142F8231013E0FB7917
:100BF0000E4A52F82320013A0C4941F823200AE01A
:100C0000FB79074A012102F82310FB79074A4FF4C8
:100C1000967142F8231000BF0C37BD4690BD00BF4F
:100C20003402002000100140F801002038020020AA
:100C3000FC01002080B582B000AF78607B681B6843
:100C40000A4A93420DD1322301220949094802F090
:100C50001FFE01220649074802F09DFE064B0122B5
:100C60001A7000BF0837BD4680BD00BF0044004079
:100C7000FD010020B4020020FE01002090B593B0D9
:100C800000AF00F0FFFD00F09DF800F09FF900F0CC
:100C9000E9F800F025F900F06FF9424800F02CFF68
:100CA000414802F00DFAFFF7EFFE00F0FFF90221D4
:100CB000002000F0C3FB0221012000F0BFFB012156
:100CC000022000F0BBFB394B00221A700122384988
:100CD000384802F060FE012000F078FB0346002B4C
:100CE00007D03221012000F0A9FB2021324801F079
:100CF000BAFC2E4B1B78002B1ED02D4B1B781846B0
:100D000000F0FCF900F036FB00F0C6F903461C4683
:100D100000F052FB034607F124002246274904F065
:100D200071F803469AB207F124013223214802F0F8
:100D3000AFFD1E4B00221A7000F03EFB0346012B54
:100D400009D100F0A9F90346002B04D04FF49671A5
:100D5000022000F073FB00F02FFB0346002BBAD0FB
:100D6000002000F033FB0346002BB4D0022000F03B
:100D70002DFB0346002BAED03221002000F05EFB9D
:100D8000084800F067FF78643B1D7A6C0C491846F0
:100D900004F038F803469AB2391D3223054802F0B0
:100DA00077FD98E73C0200206C020020FE01002045
:100DB000FD010020B40200200008014090720008EC
:100DC000B472000880B594B000AF07F12803282260
:100DD0000021184603F0AEFB07F1140300221A604D
:100DE0005A609A60DA601A613B1D00221A605A60EC
:100DF0009A60DA600223BB620123BB631023FB63AA
:100E000000237B6407F12803184601F045FC0346E4
:100E1000002B01D000F03AF90F237B610023BB6166
:100E20000023FB6100233B6200237B6207F1140374
:100E30000021184601F0B0FE0346002B01D000F05F
:100E400025F902237B600023FB603B1D184602F05E
:100E500031F80346002B01D000F018F900BF5037DD
:100E6000BD4680BD80B584B000AF3B1D00221A6036
:100E70005A609A60184B194A1A60174B00229A6000
:100E8000154B01221A73144B00221A75124B4FF4A2
:100E90006022DA61104B00225A600F4B01221A6166
:100EA0000D4800F051FD0346002B01D000F0EEF894
:100EB00000237B600123BB600023FB603B1D1946C0
:100EC000054800F0D3FE0346002B01D000F0DEF809
:100ED00000BF1037BD4680BD3C0200200024014009
:100EE00080B586B000AF07F1080300221A605A608F
:100EF0009A60DA603B4600221A605A601D4B4FF040
:100F000080421A601B4B41F63F725A60194B002217
:100F10009A60184B0922DA60164B00221A61154BB1
:100F200000229A61134802F07BF80346002B01D09F
:100F300000F0ACF84FF48053BB6007F1080319468A
:100F40000C4802F011FA0346002B01D000F09EF885
:100F500000233B6000237B603B461946054802F0B6
:100F6000DDFB0346002B01D000F090F800BF1837DE
:100F7000BD4680BD6C02002080B500AF114B124A07
:100F80001A60104B4FF416525A600E4B00229A60B2
:100F90000C4B0022DA600B4B00221A61094B0C2229
:100FA0005A61084B00229A61064B0022DA6105481B
:100FB00002F01EFC0346002B01D000F067F800BFD2
:100FC00080BD00BFB40200200044004080B586B060
:100FD00000AF07F1080300221A605A609A60DA60D5
:100FE0001D4B9B691C4A43F0100393611A4B9B698C
:100FF00003F010037B607B68174B9B69164A43F034
:1010000004039361144B9B6903F004033B603B684A
:1010100000222021114801F00EFB4FF40053BB6069
:101020000023FB6001233B6107F1080319460C48CC
:1010300001F070F92023BB600123FB6000233B61BA
:1010400002237B6107F108031946044801F062F9A5
:1010500000BF1837BD4680BD0010024000080140A7
:101060000010014080B582B000AF78600020FFF72B
:1010700063FD002000F0BAF9012000F0B7F902206A
:1010800000F0B4F900BF0837BD4680BD80B400AFA2
:1010900072B600BFFEE7000080B400AF024B1B78C1
:1010A0001846BD4680BC7047FC02002080B483B067
:1010B00000AF0E4B00221A700D4B00221A600D4B30
:1010C00000221A7000237B6007E00B4A7B68134400
:1010D00000221A707B6801337B607B681D2BF4DD76
:1010E00000BF00BF0C37BD4680BC7047FC0200202B
:1010F000200300201E0300200003002080B483B0E2
:1011000000AF0346FB710B4B1B681D2B02D9094B2B
:1011100000221A60074B1B680749FA79CA54054B2D
:101120001B680133034A136000BF0C37BD4680BC07
:10113000704700BF200300200003002080B483B06C
:1011400000AF0023FB714C4B1B78052B00F28D8008
:1011500001A252F823F000BF711100089511000898
:10116000BF110008E9110008131200083D12000821
:10117000424B1B68013B424AD35C212B06D13E4BBC
:101180001B780133DAB23C4B1A706EE03B4B002205
:101190001A606AE0394B1B68013B394AD35C522B19
:1011A00006D1354B1B780133DAB2334B1A705CE051
:1011B000324B00221A60304B00221A7055E02F4B40
:1011C0001B68013B2E4AD35C532B06D12A4B1B785C
:1011D0000133DAB2284B1A7047E0284B00221A601C
:1011E000254B00221A7040E0244B1B68013B244A27
:1011F000D35C542B06D1204B1B780133DAB21E4B43
:101200001A7032E01D4B00221A601B4B00221A702C
:101210002BE01A4B1B68013B194AD35C232B06D1E8
:10122000154B1B780133DAB2134B1A701DE0134BC8
:1012300000221A60104B00221A7016E00F4B1B6838
:10124000013B0F4AD35C0D2B08D10B4B00221A70C7
:101250000C4B01221A700123FB7105E0074B0022A1
:101260001A60054B00221A7000BFFB7918460C3734
:10127000BD4680BC704700BFFC0200202003002058
:10128000000300201E03002080B483B000AF0023C1
:10129000FB71344B1B78032B5DD801A252F823F06D
:1012A000B1120008D5120008FF1200082913000827
:1012B0002D4B1B68013B2D4AD35C212B06D1294BBA
:1012C0001B780133DAB2274B1A7044E0264B002218
:1012D0001A6040E0244B1B68013B244AD35C4F2B2F
:1012E00006D1204B1B780133DAB21E4B1A7032E064
:1012F0001D4B00221A601B4B00221A702BE01A4B68
:101300001B68013B194AD35C4B2B06D1154B1B784C
:101310000133DAB2134B1A701DE0134B00221A602E
:10132000104B00221A7016E00F4B1B68013B0F4A4E
:10133000D35C232B08D10B4B00221A700C4B0022DC
:101340001A700123FB7105E0074B00221A60054B60
:1013500000221A7000BFFB7918460C37BD4680BCCE
:10136000704700BFFC020020200300200003002083
:101370001E03002080B500AF0D4B1B78002B06D15B
:101380000C4B1B78052B02D8FFF7D8FE0DE0084B5D
:101390001B78012B06D1074B1B78032B02D8FFF7D4
:1013A00073FF02E0FFF782FE00BF00BF80BD00BFF9
:1013B0001E030020FC02002080B400AF024B1B780B
:1013C0001846BD4680BC70471E03002080B483B021
:1013D00000AF7860044A7B6852F8233018460C3717
:1013E000BD4680BC704700BF0002002080B483B0BF
:1013F00000AF78600F4A7B6852F82330002B13DD72
:101400000C4A7B6852F823305A1E0A497B6841F81F
:101410002320084A7B6852F82330002B04D1064A67
:101420007B68012142F8231000BF0C37BD4680BC09
:10143000704700BF140200200002002080B483B077
:1014400000AF78603960074A7B68002142F82310BA
:1014500005497B683A6841F8232000BF0C37BD4638
:1014600080BC7047000200201402002080B485B0C8
:1014700000AF154B9B69144A43F001039361124B73
:101480009B6903F00103BB60BB680F4BDB690E4A2D
:1014900043F08053D3610C4BDB6903F080537B60D6
:1014A0007B680A4B5B68FB60FB6823F0E063FB60D2
:1014B000FB6843F08063FB60044AFB68536000BF35
:1014C0001437BD4680BC7047001002400000014048
:1014D00080B588B000AF786007F1100300221A6071
:1014E0005A609A60DA607B681B68144A934221D183
:1014F000134B9B69124A43F400739361104B9B6931
:1015000003F40073FB60FB680D4B9B690C4A43F0CE
:10151000040393610A4B9B6903F00403BB60BB683F
:1015200001233B6103237B6107F110031946054842
:1015300000F0F0FE00BF2037BD4680BD0024014012
:10154000001002400008014080B584B000AF786010
:101550007B681B68B3F1804F13D10C4BDB690B4ADE
:1015600043F00103D361094BDB6903F00103FB6026
:10157000FB68002200211C2000F0E3FD1C2000F08D
:10158000FCFD00BF1037BD4680BD00BF001002400B
:1015900080B588B000AF786007F1100300221A60B0
:1015A0005A609A60DA607B681B681F4A934237D1A1
:1015B0001E4BDB691D4A43F40033D3611B4BDB69CF
:1015C00003F40033FB60FB68184B9B69174A43F038
:1015D00004039361154B9B6903F00403BB60BB6874
:1015E00004233B6102237B610323FB6107F11003AA
:1015F00019460F4800F08EFE08233B6100237B61F3
:101600000023BB6107F110031946094800F082FE70
:1016100000220021262000F094FD262000F0ADFDE0
:1016200000BF2037BD4680BD00440040001002408E
:101630000008014080B400AFFEE780B400AFFEE7D1
:1016400080B400AFFEE780B400AFFEE780B400AF27
:10165000FEE780B400AF00BFBD4680BC704780B4D9
:1016600000AF00BFBD4680BC704780B400AF00BF74
:10167000BD4680BC704780B500AF00F049F900BF9F
:1016800080BD000080B500AF024801F065FD00BFDD
:1016900080BD00BF6C02002080B500AF024802F0A0
:1016A0009FF900BF80BD00BFB402002080B400AF2E
:1016B00001231846BD4680BC704780B582B000AF9C
:1016C0007860396002F00CFF034616221A604FF072
:1016D000FF3318460837BD4680BD80B582B000AFE5
:1016E00078604FF0FF317868FFF7E7FFFEE780B5DD
:1016F00086B000AFF860B9607A6000237B610AE0D1
:10170000AFF300800146BB685A1CBA60CAB21A70B7
:101710007B6901337B617A697B689A42F0DB7B6885
:1017200018461837BD4680BD80B586B000AFF8605A
:10173000B9607A6000237B6109E0BB685A1CBA601B
:101740001B781846AFF300807B6901337B617A69AF
:101750007B689A42F1DB7B6818461837BD4680BD2E
:1017600080B483B000AF78604FF0FF3318460C3779
:10177000BD4680BC704780B483B000AF78603960EC
:101780003B684FF400525A60002318460C37BD46A0
:1017900080BC704780B483B000AF786001231846E6
:1017A0000C37BD4680BC704780B485B000AFF86090
:1017B000B9607A60002318461437BD4680BC704774
:1017C00080B586B000AF7860144A154BD31A7B61A0
:1017D0007B693B61134B1B68002B02D1114B124AF2
:1017E0001A60104B1A687B6813443A699A4207D210
:1017F00002F076FE03460C221A604FF0FF3309E038
:10180000084B1B68FB60074B1A687B681344054A4A
:101810001360FB6818461837BD4680BD00280020BD
:1018200000040000280200203803002080B400AF2C
:1018300000BFBD4680BC7047FFF7F8FF0B480C495E
:101840000C4A002302E0D458C4500433C4188C421C
:10185000F9D3094A094C002301E013600432A24283
:10186000FBD302F043FEFFF709FA704700000020A7
:10187000DC010020DC760008DC01002038030020B9
:10188000FEE7000080B500AF084B1B68074A43F035
:1018900010031360032000F049FC0F2000F008F84B
:1018A000FFF7E4FD0023184680BD00BF0020024082
:1018B00080B582B000AF7860124B1A68124B1B786B
:1018C00019464FF47A73B3FBF1F3B2FBF3F3184606
:1018D00000F061FC0346002B01D001230EE07B6881
:1018E0000F2B0AD8002279684FF0FF3000F029FC56
:1018F000064A7B681360002300E00123184608377E
:10190000BD4680BD0000002008000020040000202B
:1019100080B400AF054B1B781A46054B1B68134477
:10192000034A136000BFBD4680BC7047080000201A
:101930002403002080B400AF024B1B681846BD464C
:1019400080BC70472403002080B586B000AF78606B
:101950000023FB7500233B610023BB600023FB6079
:101960007B68002B01D10123BEE07B689B68002BC4
:101970007B689B6A002B09D17B680022DA627B6856
:10198000002283F824207868FFF7A2FD786800F031
:10199000BFFA0346FB757B689B6A03F01003002BBC
:1019A00040F09980FB7D002B40F095807B689B6A1E
:1019B00023F4885323F0020343F002027B689A6207
:1019C0007B685A687B68DB691A437B681B7B5B001A
:1019D0001343BA681343BB607B689B68B3F5807F91
:1019E00003D07B689B68012B02D14FF4807300E029
:1019F00000233A6913433B617B681B7D012B19D19E
:101A00007B681B7B002B09D17B689B69013B5A03D8
:101A10003B69134343F400633B610BE07B689B6AC3
:101A200043F020027B689A627B68DB6A43F0010224
:101A30007B68DA627B681B685B6823F469417B68BA
:101A40001B683A690A435A607B681B689A68284B8E
:101A500013407A681268B9680B4393607B689B688F
:101A6000B3F5807F03D07B689B68012B04D17B6832
:101A70001B69013B1B05FB607B681B68DB6A23F469
:101A800070017B681B68FA680A43DA627B681B682E
:101A90009A68184B1340BA689A420BD17B680022AF
:101AA000DA627B689B6A23F0030343F001027B68E0
:101AB0009A6218E07B689B6A23F0120343F01002DD
:101AC0007B689A627B68DB6A43F001027B68DA62BA
:101AD0000123FB7507E07B689B6A43F010027B687B
:101AE0009A620123FB75FB7D18461837BD4680BD01
:101AF000FDF7E1FFFE0E1FFF80B584B000AF7860F8
:101B00000023FB737B6893F82430012B01D102235F
:101B100098E07B68012283F82420786800F09EF921
:101B20000346FB73FB7B002B40F087807B689B6A3E
:101B300023F4407323F0010343F480727B689A62BC
:101B40007B681B68414A934205D1414B5B6803F4B3
:101B50007023002B15D17B689B6A23F480127B686D
:101B60009A627B681B685B6803F48063002B26D055
:101B70007B689B6A23F4405343F480527B689A62EB
:101B80001DE07B689B6A43F480127B689A627B68E5
:101B90001B682F4A934204D07B681B682B4A9342F0
:101BA0000DD12B4B5B6803F48063002B07D07B685F
:101BB0009B6A23F4405343F480527B689A627B68AB
:101BC0009B6A03F48053002B06D07B68DB6A23F00A
:101BD00006027B68DA6202E07B680022DA627B68D8
:101BE000002283F824207B681B686FF002021A60D1
:101BF0007B681B689B6803F46023B3F5602F13D1E7
:101C00007B681B68114A934205D1114B5B6803F452
:101C10007023002B08D17B681B689A687B681B685F
:101C200042F4A0029A600CE07B681B689A687B68AB
:101C30001B6842F480129A6003E07B68002283F8FC
:101C40002420FB7B18461037BD4680BD002801408C
:101C50000024014080B483B000AF78607B681B68CB
:101C6000DB6C18460C37BD4680BC704780B485B02D
:101C700000AF786039600023FB730023BB607B6892
:101C800093F82430012B01D10223DCE07B68012290
:101C900083F824203B685B68062B1CD87B681B6894
:101CA000596B3B685A6813469B001344053B1F223F
:101CB00002FA03F3DB4319403B6818683B685A6833
:101CC00013469B001344053B00FA03F27B681B6834
:101CD0000A435A633CE03B685B680C2B1CD87B686A
:101CE0001B68196B3B685A6813469B001344233BDF
:101CF0001F2202FA03F3DB4319403B6818683B6874
:101D00005A6813469B001344233B00FA03F27B6896
:101D10001B680A431A631BE07B681B68D96A3B682F
:101D20005A6813469B001344413B1F2202FA03F3F7
:101D3000DB4319403B6818683B685A6813469B00B0
:101D40001344413B00FA03F27B681B680A43DA62E2
:101D50003B681B68092B1CD97B681B68D9683B68EA
:101D60001A6813465B0013441E3B072202FA03F372
:101D7000DB4319403B6898683B681A6813465B0070
:101D800013441E3B00FA03F27B681B680A43DA60C7
:101D900019E07B681B6819693B681A6813465B0089
:101DA0001344072202FA03F3DB4319403B689868A7
:101DB0003B681A6813465B00134400FA03F27B6821
:101DC0001B680A431A613B681B68102B03D03B68F1
:101DD0001B68112B32D17B681B681D4A934225D1A9
:101DE0007B681B689B6803F40003002B26D17B688B
:101DF0001B689A687B681B6842F400029A603B6823
:101E00001B68102B1AD1134B1B68134AA2FB032328
:101E10009A0C13469B0013445B00BB6002E0BB6856
:101E2000013BBB60BB68002BF9D107E07B689B6A74
:101E300043F020027B689A620123FB737B680022D7
:101E400083F82420FB7B18461437BD4680BC7047BE
:101E5000002401400000002083DE1B4380B584B0D5
:101E600000AF78600023FB600023BB607B681B68C9
:101E70009B6803F00103012B40D07B681B689A68C4
:101E80007B681B6842F001029A601F4B1B681F4A67
:101E9000A2FB03239B0CBB6002E0BB68013BBB6061
:101EA000BB68002BF9D1FFF745FDF8601FE0FFF795
:101EB00041FD0246FB68D31A022B18D97B681B68C8
:101EC0009B6803F00103012B11D07B689B6A43F0F0
:101ED00010027B689A627B68DB6A43F001027B68D0
:101EE000DA627B68002283F82420012307E07B6804
:101EF0001B689B6803F00103012BD8D1002318460F
:101F00001037BD4680BD00BF0000002083DE1B43AC
:101F100080B584B000AF78600023FB607B681B68ED
:101F20009B6803F00103012B2ED17B681B689A6824
:101F30007B681B6822F001029A60FFF7FBFCF860E7
:101F40001BE0FFF7F7FC0246FB68D31A022B14D9FB
:101F50007B681B689B6803F00103012B0DD17B6834
:101F60009B6A43F010027B689A627B68DB6A43F0ED
:101F700001027B68DA62012307E07B681B689B68CB
:101F800003F00103012BDCD0002318461037BD46B7
:101F900080BD000080B485B000AF78607B6803F03E
:101FA0000703FB600C4BDB68BB60BA684FF6FF03AE
:101FB0001340BB60FB681A02BB68134343F0BF6366
:101FC00043F40033BB60044ABB68D36000BF1437DE
:101FD000BD4680BC704700BF00ED00E080B400AF9C
:101FE000044BDB681B0A03F007031846BD4680BCA0
:101FF000704700BF00ED00E080B483B000AF03463F
:10200000FB7197F90730002B0BDBFB7903F01F0204
:10201000064997F907305B09012000FA02F241F8FE
:10202000232000BF0C37BD4680BC704700E100E0B4
:1020300080B483B000AF03463960FB7197F9073075
:10204000002B0ADB3B68DAB20C4997F90730120122
:10205000D2B20B4483F800230AE03B68DAB20849A5
:10206000FB7903F00F03043B1201D2B20B441A7642
:1020700000BF0C37BD4680BC704700BF00E100E0E8
:1020800000ED00E080B489B000AFF860B9607A601C
:10209000FB6803F00703FB61FB69C3F10703042B33
:1020A00028BF0423BB61FB690433062B02D9FB69FB
:1020B000033B00E000237B614FF0FF32BB6902FA73
:1020C00003F3DA43BB681A407B699A404FF0FF3153
:1020D0007B6901FA03F3D9437B680B40134318462D
:1020E0002437BD4680BC704780B582B000AF7860B1
:1020F0007B68013BB3F1807F01D301230FE00A4AE3
:102100007B68013B53600F214FF0FF30FFF790FFDA
:10211000054B00229A60044B07221A6000231846E0
:102120000837BD4680BD00BF10E000E080B582B03A
:1021300000AF78607868FFF72DFF00BF0837BD4615
:1021400080BD80B586B000AF0346B9607A60FB738E
:1021500000237B61FFF742FF78617A68B96878698C
:10216000FFF790FF024697F90F3011461846FFF728
:102170005FFF00BF1837BD4680BD80B582B000AF9D
:102180000346FB7197F907301846FFF735FF00BF8C
:102190000837BD4680BD80B582B000AF78607868F2
:1021A000FFF7A2FF034618460837BD4680BD80B43E
:1021B00085B000AF78600023FB737B6893F8213013
:1021C000DBB2022B08D07B6804229A637B68002272
:1021D00083F82020012320E07B681B681A687B6855
:1021E0001B6822F00E021A607B681B681A687B6805
:1021F0001B6822F001021A607B681A6C7B68DB6B3B
:10220000012101FA02F25A607B68012283F8212041
:102210007B68002283F82020FB7B18461437BD46DC
:1022200080BC704780B584B000AF78600023FB733A
:102230007B6893F82130DBB2022B05D07B68042247
:102240009A630123FB7351E07B681B681A687B6803
:102250001B6822F00E021A607B681B681A687B6894
:102260001B6822F001021A607B681B68224A9342B5
:1022700029D07B681B68214A934222D07B681B6867
:102280001F4A93421AD07B681B681E4A934212D0A1
:102290007B681B681C4A93420AD07B681B681B4AF8
:1022A000934202D14FF480130EE04FF080730BE0A5
:1022B0004FF4803308E04FF4805305E04FF480730F
:1022C00002E0102300E00123114A53607B680122E1
:1022D00083F821207B68002283F820207B685B6BD9
:1022E000002B03D07B685B6B78689847FB7B1846B4
:1022F0001037BD4680BD00BF080002401C000240F0
:102300003000024044000240580002406C0002408D
:102310000000024080B48BB000AF786039600023C9
:102320007B6200233B6248E101227B6A02FA03F3ED
:10233000FB613B681B68FA691340BB61BA69FB69C2
:102340009A4240F037813B685B68A34A93425ED073
:10235000A14A934275D8A14A934258D09F4A9342CA
:102360006FD89F4A934252D09D4A934269D89D4A62
:1023700093424CD09B4A934263D89B4A934246D0A7
:10238000994A93425DD8122B2AD8122B59D801A210
:1023900052F823F00F240008E9230008FB2300086B
:1023A0003D24000843240008432400084324000877
:1023B0004324000843240008432400084324000861
:1023C0004324000843240008432400084324000851
:1023D0004324000843240008F123000805240008D2
:1023E000824A934213D02CE03B68DB683B6229E0D1
:1023F0003B68DB6804333B6224E03B68DB680833FE
:102400003B621FE03B68DB680C333B621AE03B68D1
:102410009B68002B02D104233B6213E03B689B685E
:10242000012B05D108233B627B68FA691A6109E038
:1024300008233B627B68FA695A6103E000233B6230
:1024400000E000BFBB69FF2B01D87B6801E07B681F
:1024500004337B61BB69FF2B02D87B6A9B0002E0DF
:102460007B6A083B9B003B617B691A680F213B69D3
:1024700001FA03F3DB431A40396A3B6901FA03F3BB
:102480001A437B691A603B685B6803F08053002B3A
:1024900000F09080564B9B69554A43F001039361CD
:1024A000534B9B6903F00103BB60BB68514A7B6AD5
:1024B0009B08023352F82330FB607B6A03F003036E
:1024C0009B000F2202FA03F3DB43FA681340FB6020
:1024D0007B68494A93420DD07B68484A934207D0B3
:1024E0007B68474A934201D1022304E0032302E0C0
:1024F000012300E000237A6A02F003029200934075
:10250000FA681343FB603B497B6A9B080233FA6815
:1025100041F823203B685B6803F48013002B06D04E
:10252000384B9A683749BB6913438B6006E0354BDB
:102530009A68BB69DB43334913408B603B685B6837
:1025400003F40013002B06D02E4BDA682D49BB692B
:102550001343CB6006E02B4BDA68BB69DB432949A8
:102560001340CB603B685B6803F40033002B06D05C
:10257000244B5A682349BB6913434B6006E0214B47
:102580005A68BB69DB431F4913404B603B685B687B
:1025900003F48033002B06D01A4B1A681949BB6923
:1025A00013430B6006E0174B1A68BB69DB43154900
:1025B00013400B607B6A01337B623B681A687B6A5D
:1025C00022FA03F3002B7FF4AFAE00BF00BF2C371D
:1025D000BD4680BC704700BF0000321000003110C3
:1025E0000000221000002110000012100000111045
:1025F000001002400000014000080140000C0140B2
:10260000001001400004014080B485B000AF786044
:102610000B467B807B689A687B881340002B02D036
:102620000123FB7301E00023FB73FB7B1846143787
:10263000BD4680BC704780B483B000AF78600B4665
:102640007B8013467B707B78002B03D07A887B6875
:102650001A6103E07B881A047B681A6100BF0C379B
:10266000BD4680BC704780B485B000AF78600B4633
:102670007B807B68DB68FB607A88FB6813401A0408
:10268000FB68D9437B880B401A437B681A6100BF03
:102690001437BD4680BC704780B586B000AF786007
:1026A0007B68002B01D101236CE27B681B6803F07F
:1026B0000103002B00F08780924B5B6803F00C0352
:1026C000042B0CD08F4B5B6803F00C03082B12D14A
:1026D0008C4B5B6803F48033B3F5803F0BD1894B9F
:1026E0001B6803F40033002B6CD07B685B68002B05
:1026F00068D1012346E27B685B68B3F5803F06D171
:10270000804B1B687F4A43F4803313602EE07B6864
:102710005B68002B0CD17B4B1B687A4A23F4803317
:102720001360784B1B68774A23F4802313601DE005
:102730007B685B68B3F5A02F0CD1724B1B68714AA4
:1027400043F4802313606F4B1B686E4A43F480335D
:1027500013600BE06B4B1B686A4A23F480331360F1
:10276000684B1B68674A23F4802313607B685B68AF
:10277000002B13D0FFF7DEF8386108E0FFF7DAF836
:1027800002463B69D31A642B01D90323FAE15D4B5E
:102790001B6803F40033002BF0D014E0FFF7CAF8F5
:1027A000386108E0FFF7C6F802463B69D31A642B8C
:1027B00001D90323E6E1534B1B6803F40033002BDC
:1027C000F0D100E000BF7B681B6803F00203002B20
:1027D00063D04C4B5B6803F00C03002B0BD0494BD0
:1027E0005B6803F00C03082B1CD1464B5B6803F4B9
:1027F0008033002B16D1434B1B6803F00203002BE0
:1028000005D07B681B69012B01D00123BAE13D4B48
:102810001B6823F0F8027B685B69DB0039491343CE
:102820000B603AE07B681B69002B20D0364B0122FD
:102830001A60FFF77FF8386108E0FFF77BF802467F
:102840003B69D31A022B01D903239BE12D4B1B6853
:1028500003F00203002BF0D02A4B1B6823F0F80290
:102860007B685B69DB00274913430B6015E0264B4F
:1028700000221A60FFF75EF8386108E0FFF75AF8A7
:1028800002463B69D31A022B01D903237AE11D4B7F
:102890001B6803F00203002BF0D17B681B6803F078
:1028A0000803002B3AD07B689B69002B19D0174B8B
:1028B00001221A60FFF73EF8386108E0FFF73AF8A6
:1028C00002463B69D31A022B01D903235AE10D4B6F
:1028D0005B6A03F00203002BF0D0012000F0CCFA79
:1028E0001CE00A4B00221A60FFF724F838610FE061
:1028F000FFF720F802463B69D31A022B08D90323BD
:1029000040E100BF00100240000042428004424209
:102910009E4B5B6A03F00203002BE9D17B681B68C6
:1029200003F00403002B00F0A6800023FB75974BF7
:10293000DB6903F08053002B0DD1944BDB69934A84
:1029400043F08053D361914BDB6903F08053BB604C
:10295000BB680123FB758E4B1B6803F48073002B4F
:1029600018D18B4B1B688A4A43F480731360FEF7BF
:10297000E1FF386108E0FEF7DDFF02463B69D31A4C
:10298000642B01D90323FDE0814B1B6803F48073A2
:10299000002BF0D07B68DB68012B06D17B4B1B6AD8
:1029A0007A4A43F0010313622DE07B68DB68002B59
:1029B0000CD1764B1B6A754A23F001031362734BEB
:1029C0001B6A724A23F0040313621CE07B68DB6815
:1029D000052B0CD16D4B1B6A6C4A43F00403136248
:1029E0006A4B1B6A694A43F0010313620BE0674BB1
:1029F0001B6A664A23F001031362644B1B6A634A35
:102A000023F0040313627B68DB68002B15D0FEF70C
:102A100091FF38610AE0FEF78DFF02463B69D31A49
:102A200041F28832934201D90323ABE0574B1B6A32
:102A300003F00203002BEED014E0FEF77BFF3861B9
:102A40000AE0FEF777FF02463B69D31A41F288326B
:102A5000934201D9032395E04C4B1B6A03F0020318
:102A6000002BEED1FB7D012B05D1484BDB69474A9A
:102A700023F08053D3617B68DB69002B00F08180F9
:102A8000424B5B6803F00C03082B61D07B68DB6969
:102A9000022B46D13F4B00221A60FEF74BFF3861F4
:102AA00008E0FEF747FF02463B69D31A022B01D923
:102AB000032367E0354B1B6803F00073002BF0D154
:102AC0007B681B6AB3F5803F08D1304B5B6823F409
:102AD00000327B689B682D4913434B602B4B5B682E
:102AE00023F474127B68196A7B685B6A0B4327497D
:102AF00013434B60274B01221A60FEF71BFF38611E
:102B000008E0FEF717FF02463B69D31A022B01D9F2
:102B1000032337E01D4B1B6803F00073002BF0D03C
:102B20002FE01C4B00221A60FEF704FF386108E01A
:102B3000FEF700FF02463B69D31A022B01D903239B
:102B400020E0124B1B6803F00073002BF0D118E05B
:102B50007B68DB69012B01D1012313E00B4B5B6820
:102B6000FB60FB6803F480327B681B6A9A4206D1E3
:102B7000FB6803F470127B685B6A9A4201D0012300
:102B800000E0002318461837BD4680BD0010024003
:102B9000007000406000424280B584B000AF7860B1
:102BA00039607B68002B01D10123D0E06A4B1B68A0
:102BB00003F007033A689A4210D9674B1B6823F069
:102BC000070265493B6813430B60634B1B6803F0C6
:102BD00007033A689A4201D00123B8E07B681B687A
:102BE00003F00203002B20D07B681B6803F0040372
:102BF000002B05D0594B5B68584A43F4E06353609F
:102C00007B681B6803F00803002B05D0534B5B68FF
:102C1000524A43F460535360504B5B6823F0F00218
:102C20007B689B684D4913434B607B681B6803F0CE
:102C30000103002B40D07B685B68012B07D1474B19
:102C40001B6803F40033002B15D101237FE07B6860
:102C50005B68022B07D1414B1B6803F00073002B0C
:102C600009D1012373E03D4B1B6803F00203002BE5
:102C700001D101236BE0394B5B6823F003027B68D1
:102C80005B68364913434B60FEF754FEF8600AE078
:102C9000FEF750FE0246FB68D31A41F28832934297
:102CA00001D9032353E02D4B5B6803F00C027B68D2
:102CB0005B689B009A42EBD1274B1B6803F007032C
:102CC0003A689A4210D2244B1B6823F0070222492B
:102CD0003B6813430B60204B1B6803F007033A6803
:102CE0009A4201D0012332E07B681B6803F00403A1
:102CF000002B08D0194B5B6823F4E0627B68DB682B
:102D0000164913434B607B681B6803F00803002BD4
:102D100009D0124B5B6823F460527B681B69DB00AF
:102D20000E4913434B6000F021F802460B4B5B68E1
:102D30001B0903F00F030A49CB5C22FA03F3094A8B
:102D40001360094B1B681846FEF7B2FD00231846B6
:102D50001037BD4680BD00BF002002400010024079
:102D6000C4720008000000200400002080B487B076
:102D700000AF0023FB600023BB6000237B610023C6
:102D80007B6000233B611E4B5B68FB60FB6803F0CC
:102D90000C03042B02D0082B03D027E0194B3B6116
:102DA00027E0FB689B0C03F00F03174AD35C7B60A2
:102DB000FB6803F48033002B10D0114B5B685B0C75
:102DC00003F00103114AD35CBB607B680D4A02FB30
:102DD00003F2BB68B2FBF3F37B6104E07B680C4A4F
:102DE00002FB03F37B617B693B6102E0054B3B61C6
:102DF00000BF3B6918461C37BD4680BC704700BF0A
:102E00000010024000127A00DC720008EC72000828
:102E100000093D0080B400AF024B1B681846BD4658
:102E200080BC70470000002080B500AFFFF7F2FFC4
:102E30000246054B5B681B0A03F007030349CB5CA2
:102E400022FA03F3184680BD00100240D472000835
:102E500080B500AFFFF7DEFF0246054B5B68DB0A7B
:102E600003F007030349CB5C22FA03F3184680BD45
:102E700000100240D472000880B485B000AF7860C2
:102E80000A4B1B680A4AA2FB03235B0A7A6802FB0F
:102E900003F3FB6000BFFB685A1EFA60002BF9D1F8
:102EA00000BF00BF1437BD4680BC70470000002043
:102EB000D34D621080B586B000AF786000233B61CF
:102EC0000023FB607B681B6803F00103002B7DD0AF
:102ED0000023FB754F4BDB6903F08053002B0DD1B2
:102EE0004C4BDB694B4A43F08053D361494BDB6960
:102EF00003F08053BB60BB680123FB75464B1B6826
:102F000003F48073002B18D1434B1B68424A43F4EF
:102F100080731360FEF70EFD386108E0FEF70AFDCE
:102F200002463B69D31A642B01D903236DE03A4B67
:102F30001B6803F48073002BF0D0364B1B6A03F43C
:102F40004073FB60FB68002B2ED07B685B6803F44A
:102F50004073FA689A4227D02E4B1B6A23F44073C1
:102F6000FB602E4B01221A602C4B00221A60294A6A
:102F7000FB681362FB6803F00103002B14D0FEF71B
:102F8000D9FC38610AE0FEF7D5FC02463B69D31A4A
:102F900041F28832934201D9032336E01D4B1B6A6C
:102FA00003F00203002BEED01A4B1B6A23F440728D
:102FB0007B685B68174913430B62FB7D012B05D1CE
:102FC000144BDB69134A23F08053D3617B681B6881
:102FD00003F00203002B08D00E4B5B6823F4404241
:102FE0007B689B680B4913434B607B681B6803F04D
:102FF0001003002B08D0074B5B6823F480027B682A
:10300000DB68044913434B60002318461837BD465C
:1030100080BD00BF001002400070004040044242EA
:1030200080B582B000AF78607B68002B01D10123AE
:1030300041E07B6893F83D30DBB2002B06D17B6822
:10304000002283F83C207868FEF77EFA7B68022233
:1030500083F83D207B681A687B6804331946104664
:1030600000F06EFA7B68012283F846207B6801221B
:1030700083F83E207B68012283F83F207B68012291
:1030800083F840207B68012283F841207B6801227D
:1030900083F842207B68012283F843207B68012269
:1030A00083F844207B68012283F845207B68012255
:1030B00083F83D20002318460837BD4680BD000038
:1030C00080B485B000AF78607B6893F83D30DBB2A8
:1030D000012B01D0012335E07B68022283F83D20DB
:1030E0007B681B68DA687B681B6842F00102DA6063
:1030F0007B681B68164A934209D07B681B68B3F152
:10310000804F04D07B681B68124A934211D17B68C0
:103110001B689B6803F00703FB60FB68062B10D05D
:103120007B681B681A687B681B6842F001021A60A2
:1031300007E07B681B681A687B681B6842F0010225
:103140001A60002318461437BD4680BC704700BF84
:10315000002C01400004004080B582B000AF7860D0
:103160007B681B681B6903F00203022B22D17B687A
:103170001B68DB6803F00203022B1BD17B681B6812
:103180006FF002021A617B6801221A777B681B6864
:103190009B6903F00303002B03D0786800F0B4F9B7
:1031A00005E0786800F0A7F9786800F0B6F97B6868
:1031B00000221A777B681B681B6903F00403042B49
:1031C00022D17B681B68DB6803F00403042B1BD14E
:1031D0007B681B686FF004021A617B6802221A7711
:1031E0007B681B689B6903F44073002B03D07868ED
:1031F00000F08AF905E0786800F07DF9786800F061
:103200008CF97B6800221A777B681B681B6903F0C6
:103210000803082B22D17B681B68DB6803F00803D6
:10322000082B1BD17B681B686FF008021A617B6852
:1032300004221A777B681B68DB6903F00303002B09
:1032400003D0786800F060F905E0786800F053F981
:10325000786800F062F97B6800221A777B681B6847
:103260001B6903F01003102B22D17B681B68DB68FD
:1032700003F01003102B1BD17B681B686FF010024A
:103280001A617B6808221A777B681B68DB6903F484
:103290004073002B03D0786800F036F905E07868B9
:1032A00000F029F9786800F038F97B6800221A7775
:1032B0007B681B681B6903F00103012B0ED17B683F
:1032C0001B68DB6803F00103012B07D17B681B68D7
:1032D0006FF001021A617868FDF7C4FE7B681B6815
:1032E0001B6903F08003802B0ED17B681B68DB68B1
:1032F00003F08003802B07D17B681B686FF080028E
:103300001A61786800F06BFA7B681B681B6903F030
:103310004003402B0ED17B681B68DB6803F0400341
:10332000402B07D17B681B686FF040021A617868F8
:1033300000F0FCF87B681B681B6903F02003202B5E
:103340000ED17B681B68DB6803F02003202B07D1BC
:103350007B681B686FF020021A61786800F036FA0B
:1033600000BF0837BD4680BD80B584B000AF78602F
:1033700039600023FB737B6893F83C30012B01D14B
:103380000223B4E07B68012283F83C207B680222A0
:1033900083F83D207B681B689B68BB60BB6823F09B
:1033A0007703BB60BB6823F47F43BB607B681B680B
:1033B000BA689A603B681B68B3F5005F3ED0B3F50E
:1033C000005F00F28780B3F5805F00F08680B3F580
:1033D000805F7FD8702B1AD0702B7BD8602B50D099
:1033E000602B77D8502B3CD0502B73D8402B58D023
:1033F000402B6FD8302B64D0302B6BD8202B60D073
:10340000202B67D8002B5CD0102B5AD062E07B6851
:1034100018683B6899683B685A683B68DB6800F04D
:103420005EF97B681B689B68BB60BB6843F07703F1
:10343000BB607B681B68BA689A604FE07B6818685D
:103440003B6899683B685A683B68DB6800F047F95D
:103450007B681B689A687B681B6842F480429A60AC
:103460003CE07B6818683B6859683B68DB681A4633
:1034700000F0BEF87B681B685021184600F015F973
:103480002CE07B6818683B6859683B68DB681A4623
:1034900000F0DCF87B681B686021184600F005F935
:1034A0001CE07B6818683B6859683B68DB681A4613
:1034B00000F09EF87B681B684021184600F0F5F884
:1034C0000CE07B681A683B681B681946104600F0E0
:1034D000ECF803E00123FB7300E000BF7B680122EE
:1034E00083F83D207B68002283F83C20FB7B184654
:1034F0001037BD4680BD80B483B000AF786000BF98
:103500000C37BD4680BC704780B483B000AF786094
:1035100000BF0C37BD4680BC704780B483B000AF9D
:10352000786000BF0C37BD4680BC704780B483B064
:1035300000AF786000BF0C37BD4680BC704700000C
:1035400080B485B000AF786039607B681B68FB6031
:103550007B68254A934207D07B68B3F1804F03D044
:103560007B68224A934208D1FB6823F07003FB601A
:103570003B685B68FA681343FB607B681A4A9342B6
:1035800007D07B68B3F1804F03D07B68174A934222
:1035900008D1FB6823F44073FB603B68DB68FA6882
:1035A0001343FB60FB6823F080023B685B691343B5
:1035B000FB607B68FA681A603B689A687B68DA622D
:1035C0003B681A687B689A627B68074A934203D11A
:1035D0003B681A697B681A637B6801225A6100BFE5
:1035E0001437BD4680BC7047002C014000040040E9
:1035F00080B487B000AFF860B9607A60FB681B6A7E
:103600007B61FB681B6A23F00102FB681A62FB689E
:103610009B693B613B6923F0F0033B617B681B01C5
:103620003A6913433B617B6923F00A037B617A6942
:10363000BB6813437B61FB683A699A61FB687A69EE
:103640001A6200BF1C37BD4680BC704780B487B08B
:1036500000AFF860B9607A60FB681B6A7B61FB6849
:103660001B6A23F01002FB681A62FB689B693B61CE
:103670003B6923F470433B617B681B033A69134346
:103680003B617B6923F0A0037B61BB681B017A6906
:1036900013437B61FB683A699A61FB687A691A6235
:1036A00000BF1C37BD4680BC704780B485B000AFFA
:1036B000786039607B689B68FB60FB6823F070036F
:1036C000FB603A68FB68134343F00703FB607B68C9
:1036D000FA689A6000BF1437BD4680BC704780B45A
:1036E00087B000AFF860B9607A603B60FB689B68A8
:1036F0007B617B6923F47F437B613B681A027B68B3
:103700001A43BB6813437A6913437B61FB687A6988
:103710009A6000BF1C37BD4680BC704780B485B03E
:1037200000AF786039607B6893F83C30012B01D1A1
:10373000022341E07B68012283F83C207B6802225F
:1037400083F83D207B681B685B68FB607B681B68B7
:103750009B68BB60FB6823F07003FB603B681B68E1
:10376000FA681343FB607B681B68FA685A607B68E1
:103770001B68144A934209D07B681B68B3F1804FE1
:1037800004D07B681B68104A93420CD1BB6823F0BD
:103790008003BB603B685B68BA681343BB607B68AF
:1037A0001B68BA689A607B68012283F83D207B68B9
:1037B000002283F83C20002318461437BD4680BC05
:1037C000704700BF002C01400004004080B483B06B
:1037D00000AF786000BF0C37BD4680BC704780B436
:1037E00083B000AF786000BF0C37BD4680BC704727
:1037F00080B582B000AF78607B68002B01D10123D7
:1038000042E07B6893F84130DBB2002B06D17B6845
:10381000002283F840207868FDF7BAFE7B682422F6
:1038200083F841207B681B68DA687B681B6822F498
:103830000052DA60786800F0C5FD7B681B681A6981
:103840007B681B6822F490421A617B681B685A6986
:103850007B681B6822F02A025A617B681B68DA6861
:103860007B681B6842F40052DA607B6800225A646D
:103870007B68202283F841207B68202283F8422045
:103880007B6800225A63002318460837BD4680BD76
:1038900080B58AB002AFF860B9603B601346FB8028
:1038A00000237B61FB6893F84130DBB2202B6DD1A4
:1038B000BB68002B02D0FB88002B01D1012366E0FE
:1038C000FB6800225A64FB68212283F84120FEF73E
:1038D00031F87861FB68FA889A84FB68FA88DA84A0
:1038E000FB689B68B3F5805F08D1FB681B69002B00
:1038F00004D10023FB61BB68BB6103E0BB68FB61D3
:103900000023BB612AE03B6800937B690022802191
:10391000F86800F014FB0346002B01D0032336E0C7
:10392000FB69002B0BD1BB691B881A46FB681B681F
:10393000C2F308025A60BB690233BB6107E0FB694E
:103940001A78FB681B685A60FB690133FB61FB68EE
:10395000DB8C9BB2013B9AB2FB68DA84FB68DB8CA0
:103960009BB2002BCFD13B6800937B6900224021A2
:10397000F86800F0E4FA0346002B01D0032306E0C8
:10398000FB68202283F84120002300E00223184630
:103990002037BD4680BD80B584B000AFF860B96007
:1039A0001346FB80FB6893F84230DBB2202B12D128
:1039B000BB68002B02D0FB88002B01D101230BE058
:1039C000FB6800221A63FB881A46B968F86800F0A1
:1039D00024FB034600E0022318461037BD4680BD95
:1039E00080B5BAB000AF78607B681B681B68C7F809
:1039F000E4307B681B68DB68C7F8E0307B681B68D5
:103A00005B69C7F8DC300023C7F8D8300023C7F85B
:103A1000D430D7F8E43003F00F03C7F8D830D7F824
:103A2000D830002B0FD1D7F8E43003F02003002B5F
:103A300009D0D7F8E03003F02003002B03D07868DA
:103A400000F001FC5BE2D7F8D830002B00F0DE80FC
:103A5000D7F8DC3003F00103002B06D1D7F8E030B3
:103A600003F49073002B00F0D180D7F8E43003F01A
:103A70000103002B0BD0D7F8E03003F48073002B48
:103A800005D07B685B6C43F001027B685A64D7F811
:103A9000E43003F00403002B0BD0D7F8DC3003F044
:103AA0000103002B05D07B685B6C43F002027B684E
:103AB0005A64D7F8E43003F00203002B0BD0D7F898
:103AC000DC3003F00103002B05D07B685B6C43F016
:103AD00004027B685A64D7F8E43003F00803002B33
:103AE00011D0D7F8E03003F02003002B05D1D7F830
:103AF000DC3003F00103002B05D07B685B6C43F0E6
:103B000008027B685A647B685B6C002B00F0F281D2
:103B1000D7F8E43003F02003002B08D0D7F8E030CA
:103B200003F02003002B02D0786800F08CFB7B6848
:103B30001B685B6903F04003002B14BF01230023C3
:103B4000DBB2C7F8D4307B685B6C03F00803002B52
:103B500003D1D7F8D430002B4FD0786800F096FA14
:103B60007B681B685B6903F04003002B41D07B68D6
:103B70001B681433C7F89C30D7F89C3053E8003FDB
:103B8000C7F89830D7F8983023F04003C7F8D03002
:103B90007B681B681433D7F8D020C7F8A820C7F873
:103BA000A430D7F8A410D7F8A82041E80023C7F81C
:103BB000A030D7F8A030002BD9D17B68DB6B002B6D
:103BC00013D07B68DB6B7E4A5A637B68DB6B1846DD
:103BD000FEF728FB0346002B16D07B68DB6B5B6B84
:103BE0007A68D26B104698470EE0786800F093F937
:103BF0000AE0786800F08FF906E0786800F08BF949
:103C00007B6800225A6475E100BF73E17B681B6B1F
:103C1000012B40F04F81D7F8E43003F01003002B64
:103C200000F04881D7F8E03003F01003002B00F0DB
:103C300041810023BB607B681B681B68BB607B689D
:103C40001B685B68BB60BB687B681B685B6903F0D3
:103C50004003002B00F0B6807B68DB6B1B685B6861
:103C6000A7F8BE30B7F8BE30002B00F045817B6866
:103C70009B8DB7F8BE209A4280F03E817B68B7F8F2
:103C8000BE20DA857B68DB6B9B69202B00F0888087
:103C90007B681B680C33C7F88830D7F8883053E846
:103CA000003FC7F88430D7F8843023F48073C7F816
:103CB000B8307B681B680C33D7F8B820C7F894205D
:103CC000C7F89030D7F89010D7F8942041E8002337
:103CD000C7F88C30D7F88C30002BD9D17B681B68A3
:103CE00014337B677B6F53E8003F3B673B6F23F0E8
:103CF0000103C7F8B4307B681B681433D7F8B420CD
:103D0000C7F88020FB67F96FD7F8802041E80023CF
:103D1000BB67BB6F002BE1D17B681B6814333B662C
:103D20003B6E53E8003FFB65FB6D23F04003C7F893
:103D3000B0307B681B681433D7F8B020FA66BB66D6
:103D4000B96EFA6E41E800237B667B6E002BE3D1EF
:103D50007B68202283F842207B6800221A637B68FC
:103D60001B680C33FB64FB6C53E8003FBB64BB6C0B
:103D700023F01003C7F8AC307B681B680C33D7F80E
:103D8000AC20BA657B65796DBA6D41E800233B656F
:103D90003B6D002BE3D17B68DB6B1846FEF707FA1F
:103DA0007B6802225A637B689A8D7B68DB8D9BB2AD
:103DB000D31A9BB21946786800F0B6F89CE000BFB1
:103DC000514100087B689A8D7B68DB8D9BB2D31ACA
:103DD000A7F8CE307B68DB8D9BB2002B00F08E8085
:103DE000B7F8CE30002B00F089807B681B680C335D
:103DF000BB63BB6B53E8003F7B637B6B23F4907327
:103E0000C7F8C8307B681B680C33D7F8C8207A64C1
:103E10003B64396C7A6C41E80023FB63FB6B002B3D
:103E2000E3D17B681B6814337B627B6A53E8003FF5
:103E30003B623B6A23F00103C7F8C4307B681B6810
:103E40001433D7F8C4203A63FB62F96A3A6B41E84D
:103E50000023BB62BB6A002BE3D17B68202283F87E
:103E600042207B6800221A637B681B680C333B612D
:103E70003B6953E8003FFB60FB6823F01003C7F881
:103E8000C0307B681B680C33D7F8C020FA61BB6177
:103E9000B969FA6941E800237B617B69002BE3D1B2
:103EA0007B6802225A63B7F8CE301946786800F072
:103EB0003BF823E0D7F8E43003F08003002B09D06F
:103EC000D7F8E03003F08003002B03D0786800F0CF
:103ED00053F914E0D7F8E43003F04003002B0ED080
:103EE000D7F8E03003F04003002B08D0786800F0EA
:103EF00092F904E000BF02E000BF00E000BFE83735
:103F0000BD4680BD80B483B000AF786000BF0C3781
:103F1000BD4680BC704780B483B000AF786000BFFE
:103F20000C37BD4680BC704780B483B000AF78606A
:103F30000B467B8000BF0C37BD4680BC704780B508
:103F400090B000AFF860B9603B601346FB7150E081
:103F5000BB6CB3F1FF3F4CD0BB6C002B07D0FDF71F
:103F6000E9FC02463B68D31ABA6C9A4241D2FB681C
:103F70001B680C33BB62BB6A53E8003F7B627B6A01
:103F800023F4D073FB63FB681B680C33FA6B7A6312
:103F90003B63396B7A6B41E80023FB62FB6A002BC1
:103FA000E5D1FB681B6814337B617B6953E8003FF4
:103FB0003B613B6923F00103BB63FB681B6814335F
:103FC000BA6B3A62FB61F9693A6A41E80023BB6166
:103FD000BB69002BE5D1FB68202283F84120FB68F8
:103FE000202283F84220FB68002283F8402003232C
:103FF0000FE0FB681B681A68BB681340BA689A42F6
:104000000CBF01230023DBB21A46FB799A429FD0F2
:10401000002318464037BD4680BD80B485B000AF50
:10402000F860B9601346FB80FB68BA689A62FB6867
:10403000FA889A85FB68FA88DA85FB6800225A6458
:10404000FB68222283F84220FB681B69002B07D003
:10405000FB681B68DA68FB681B6842F48072DA60F0
:10406000FB681B685A69FB681B6842F001025A61D1
:10407000FB681B68DA68FB681B6842F02002DA60A4
:10408000002318461437BD4680BC704780B495B0F5
:1040900000AF78607B681B680C337B637B6B53E8F5
:1040A000003F3B633B6B23F49073FB647B681B68AE
:1040B0000C33FA6C3A64FB63F96B3A6C41E8002309
:1040C000BB63BB6B002BE5D17B681B6814333B6281
:1040D0003B6A53E8003FFB61FB6923F00103BB64CB
:1040E0007B681B681433BA6CFA62BB62B96AFA6AFD
:1040F00041E800237B627B6A002BE5D17B681B6B68
:10410000012B19D17B681B680C33FB60FB6853E8FB
:10411000003FBB60BB6823F010037B647B681B68B7
:104120000C337A6CBA617B617969BA6941E8002322
:104130003B613B69002BE5D17B68202283F842205C
:104140007B6800221A6300BF5437BD4680BC7047AD
:1041500080B584B000AF78607B685B6AFB60FB6809
:104160000022DA85FB680022DA84F868FFF7D3FEC4
:1041700000BF1037BD4680BD80B485B000AF786009
:104180007B6893F84130DBB2212B3ED17B689B6882
:10419000B3F5805F14D17B681B69002B10D17B685D
:1041A0001B6AFB60FB681B881A467B681B68C2F3AE
:1041B00008025A607B681B6A9A1C7B681A6208E0D6
:1041C0007B681B6A591C7A6811621A787B681B68C5
:1041D0005A607B68DB8C9BB2013B9BB27A681946C4
:1041E000D184002B0FD17B681B68DA687B681B6861
:1041F00022F08002DA607B681B68DA687B681B68E3
:1042000042F04002DA60002300E00223184614372F
:10421000BD4680BC704780B582B000AF78607B68D7
:104220001B68DA687B681B6822F04002DA607B68F2
:10423000202283F841207868FFF764FE00231846A7
:104240000837BD4680BD80B58CB000AF78607B6814
:1042500093F84230DBB2222B40F0AE807B689B6843
:10426000B3F5805F17D17B681B69002B13D1002346
:10427000FB627B689B6ABB627B681B685B689BB266
:10428000C3F308039AB2BB6A1A807B689B6A9A1CC4
:104290007B689A6226E07B689B6AFB620023BB62B4
:1042A0007B689B68B3F5805F07D07B689B68002BB9
:1042B0000AD17B681B69002B06D17B681B685B6891
:1042C000DAB2FB6A1A7008E07B681B685B68DBB2D5
:1042D00003F07F03DAB2FB6A1A707B689B6A5A1C90
:1042E0007B689A627B68DB8D9BB2013B9BB27A68EC
:1042F0001946D185002B5DD17B681B68DA687B6825
:104300001B6822F02002DA607B681B68DA687B6831
:104310001B6822F48072DA607B681B685A697B68CC
:104320001B6822F001025A617B68202283F8422038
:104330007B6800225A637B681B6B012B35D17B683D
:1043400000221A637B681B680C337B617B6953E82E
:10435000003F3B613B6923F010037B627B681B6875
:104360000C337A6A3A62FB61F9693A6A41E80023E0
:10437000BB61BB69002BE5D17B681B681B6803F040
:104380001003102B0AD10023FB607B681B681B689D
:10439000FB607B681B685B68FB60FB687B689B8DD0
:1043A00019467868FFF7C0FD02E07868FCF742FC28
:1043B000002302E0002300E0022318463037BD4608
:1043C00080BD000080B584B000AF78607B681B685A
:1043D0001B6923F440517B68DA687B681B680A43D9
:1043E0001A617B689A687B681B691A437B685B6902
:1043F0001343BB607B681B68DB6823F4B05323F076
:104400000C037A681268B9680B43D3607B681B6839
:104410005B6923F440717B689A697B681B680A4377
:104420005A617B681B682C4A934203D1FEF710FD4A
:10443000F86002E0FEF7F8FCF860FA6813469B00AB
:1044400013449A001A447B685B689B00B2FBF3F349
:10445000224AA2FB03235B091901FA6813469B0059
:1044600013449A001A447B685B689B00B2FBF3F22A
:104470001A4BA3FB02035B09642000FB03F3D31A6E
:104480001B013233154AA2FB03235B0903F0F0033F
:104490001944FA6813469B0013449A001A447B6837
:1044A0005B689B00B2FBF3F20C4BA3FB02035B09BE
:1044B000642000FB03F3D31A1B013233074AA2FB2B
:1044C00003235B0903F00F027B681B680A449A60B0
:1044D00000BF1037BD4680BD003801401F85EB513D
:1044E000014B1868704700BF0C00002070B5002613
:1044F0000C4D0D4C641BA410A64209D102F0BAFE6B
:1045000000260A4D0A4C641BA410A64205D170BDBA
:1045100055F8043B98470136EEE755F8043B9847B9
:104520000136F2E7D4760008D4760008D476000885
:10453000D876000803460244934200D1704703F83E
:10454000011BF9E7002B2DE9F0471F46BBBF03F124
:1045500000431F4600232D2388B01446129A109D55
:104560001370149BDDF84CA023F02008B8F1460F1F
:1045700005D0B8F1450F00D10135022300E0032337
:1045800007AA049206AACDE902A2CDE90035224687
:104590003B4600F0E5FCB8F1470F064602D1119BFF
:1045A000DB0722D5B8F1460F06EB050910D13378A9
:1045B000302B0AD10022002320463946FCF7F4F9BB
:1045C00018B9C5F10105CAF80050DAF8003099446D
:1045D0000022002320463946FCF7E6F908B1CDF861
:1045E0001C903022079B4B4507D33046079B159AFA
:1045F0009B1B136008B0BDE8F087591C07911A7027
:10460000F0E70346F7B5002903F8022BB6BF2D22C9
:104610002B224942092942702BDD0DF10704A446E3
:104620000A2791FBF7F60A46A64607FB1615632AEA
:1046300005F13005314604F1FF340EF8015CF0DC81
:104640003031AEF1020504F8011C2946441C6145D5
:104650000AD30DF10902A2EB0E02654588BF0022C4
:104660001344181A03B0F0BD11F8012B04F8012F00
:10467000EDE7302330318370C170031DF1E7000096
:104680002DE9F04F91B00C46DDF8688016461F46C4
:10469000054601F053FA036818460993FBF758FDE5
:1046A00000230E93D8F800300A90073323F0070355
:1046B00003F1080294F81890D4F800B0C8F800206C
:1046C000D3E90023C4E91223D4E9128A2AF0004373
:1046D0000B934FF0FF3240469C4B0B99FCF796F939
:1046E00070BB4FF0FF324046984B0B99FCF770F9C6
:1046F00030BB0022002340465146FCF75FF910B161
:104700002D2384F84330924B9248B9F1470F94BF60
:104710009846804603234FF0000A23612BF00403E0
:10472000236033462146284600970FAA00F0D4F9AB
:10473000013040F090804FF0FF3011B0BDE8F08FB5
:104740004246534640465146FCF760F948B1BAF13B
:10475000000FB8BF2D238048B8BF84F843307F4B8B
:10476000D3E7636809F0DF015A1C42D10623636076
:10477000002206920EAACDE904920DAA4BF48063A2
:1047800003920DF13302CDE90132236063684246A2
:104790000093284653460B91FFF7D4FE0B998046B1
:1047A00047290D9908D1C81C02DB6368994240DD96
:1047B000A9F102095FFA89F9B9F1650F1FD84A46D4
:1047C000013904F150000D91FFF71BFF0E9A82464C
:1047D0001318012A236102DC2268D20701D50133B4
:1047E00023619DF83330002B9BD02D2384F8433078
:1047F00097E74729BCD1002BBAD10123B7E7B9F11C
:10480000660F18D1002963680BDD216113B9226896
:10481000D00702D501330B4423614FF0000AA16594
:10482000DFE713B92268D20701D50233F4E7012389
:10483000F2E74FF067090E9B994205DB236821617F
:10484000D807EAD54B1CE7E70029CCBF0122C1F10C
:1048500002021344E0E723685A0507D4236942465D
:1048600031462846B84701302BD164E7B9F1650FCE
:1048700040F2DD80D4E9120100220023FCF794F815
:10488000002833D0012331462846354AB847013045
:104890003FF451AFDDE90D239A4202DB2368D807CC
:1048A0000FD5DDE9092331462846B84701303FF4EA
:1048B00042AF4FF0000804F11A090E9B013B43453B
:1048C00009DC23689B0700F10281E0680F9B984296
:1048D000B8BF184631E701234A4631462846B84753
:1048E00001303FF428AF08F10108E6E70D9B002BEB
:1048F00038DC012331462846194AB84701303FF4D5
:104900001AAFDDE90D23134302D12368D907D8D5A7
:10491000DDE9092331462846B84701303FF40BAFA3
:104920004FF0000904F11A0A0D9B5B424B4501DC74
:104930000E9B94E70123524631462846B847013082
:104940003FF4F9AE09F10109EEE700BFFFFFEF7F89
:10495000F4720008F872000800730008FC72000886
:10496000047300080E9AA36D9A42A8BF1A46002A43
:10497000914637DC4FF0000B29EAE97904F11A027D
:10498000D4F858A0AAEB09035B4533DCDDE90D231D
:104990009A423BDB2368DA0738D40E9A0D99A2EBD2
:1049A0000A03A2EB01099945A8BF9946B9F1000F86
:1049B00034DC4FF0000829EAE97904F11A0ADDE94C
:1049C0000D239B1AA3EB090343457FF77AAF01231D
:1049D000524631462846B84701303FF4ACAE08F1A4
:1049E0000108ECE71346314642462846B8470130F5
:1049F000C0D1A0E60123314628460B92B8470130CA
:104A00003FF499AE0B9A0BF1010BB9E73146DDE9A2
:104A100009232846B8470130BFD18CE64B463146C2
:104A2000284608EB0A02B8470130C2D183E60E9A45
:104A3000012A01DCDB0737D50123424631462846EF
:104A4000B84701303FF477AEDDE909233146284607
:104A5000B84701303FF46FAED4E9120100220023C1
:104A6000FBF7A2FFD8B90E9B08F10102013B3146CA
:104A70002846B84701300ED15DE601234A4631464B
:104A80002846B84701303FF456AE08F101080E9BA6
:104A9000013B4345F1DC534604F15002E0E64FF0A0
:104AA000000804F11A09F2E701234246DFE7012377
:104AB0004A4631462846B84701303FF43CAE08F13B
:104AC0000108E3680F995B1A4345F0DCFDE64FF0FF
:104AD000000804F11909F4E72DE9F0471646994654
:104AE0008A680B6907469342B8BF1346336091F852
:104AF00043200C46DDF820800AB10133336023687F
:104B0000990642BF336802333360256815F0060505
:104B100006D104F1190AE36832689B1AAB4228DC1B
:104B200094F84320131E226818BF012392062DD447
:104B30004946384604F14302C047013020D023687B
:104B4000E56803F00603042B18BF002532684FF018
:104B50000006A36808BFAD1A226908BF25EAE575FB
:104B60009342C4BF9B1AED181A34B5421AD10020E3
:104B700008E00123524649463846C047013003D178
:104B80004FF0FF30BDE8F0870135C4E73020E11871
:104B900081F843005A1C94F845102244023382F8ED
:104BA0004310C5E70123224649463846C047013035
:104BB000E6D00136D9E700002DE9FF470C46277EF5
:104BC0009146782F80469A460C9904F1430207D803
:104BD000622F0AD8002F00F0D980582F00F0A4804F
:104BE00004F1420684F842703AE0A7F16303152B02
:104BF000F6D801A050F823F0514C0008654C00088D
:104C0000E14B0008E14B0008E14B0008E14B0008D4
:104C1000654C0008E14B0008E14B0008E14B00083F
:104C2000E14B0008734D0008954C0008554D0008F5
:104C3000E14B0008E14B0008954D0008E14B0008EE
:104C4000954C0008E14B0008E14B00085D4D000861
:104C50000B6804F142061A1D1B680A6084F8423092
:104C60000123A4E0256808682E0600F104030AD594
:104C700005680B60002D03DA2D236D4284F8433064
:104C80000A235E4819E015F0400F05680B6018BF55
:104C90002DB2EFE70B682568181D0860280601D5BE
:104CA0001D6802E06906FBD51D886F2F0CBF082325
:104CB0000A235248002184F843106668002EA8BFDA
:104CC0002168A660A4BF21F0040121600DB9002E67
:104CD0004DD01646B5FBF3F103FB1157C75D06F83F
:104CE000017D2F46BB420D46F4D9082B0BD123681A
:104CF000DF0708D5236961689942DEBF302306F8D3
:104D0000013C06F1FF36921B22614B46214640468C
:104D1000CDF800A003AAFFF7DFFE01304CD14FF021
:104D2000FF3004B0BDE8F087344884F845700E6861
:104D3000236856F8045B1F060E6014D5D90744BFDC
:104D400043F0200323601DB9236823F02003236070
:104D50001023AFE7236843F020032360782328481B
:104D600084F84530E3E75E0648BFADB2E6E7164695
:104D7000BBE70B6826681D1D60690D6035061B6862
:104D800001D5186002E07106FBD518800023164695
:104D90002361BAE70B681A1D0A601E6800213046BD
:104DA000626800F0D7FE08B1801B60606368236111
:104DB000002384F84330A8E7324649464046236939
:104DC000D0470130ABD023689B0713D4E068039B26
:104DD0009842B8BF1846A4E70123324649464046E8
:104DE000D04701309BD00135E36803995B1AAB4291
:104DF000F2DCEBE7002504F11906F5E7067300087D
:104E0000177300080EB46FF0004100B59CB01DABE5
:104E100002900690079104910848094953F8042B21
:104E20000591006802A9019301F042FB0022029B58
:104E30001A701CB05DF804EB03B070470C00002042
:104E40000802FFFF2DE9F74F03690C690746A342EB
:104E5000C0F28380013C00F1140501F1140805EB58
:104E60008403019358F8243055F8242001339A42E2
:104E7000B2FBF3F64FEA840B08EB840932D34FF010
:104E8000000E4046AC46F24650F8042B93B206FBA7
:104E900003E3120C4FEA134E06FB02E29BB2AAEBAD
:104EA0000303DCF800A04FEA124E1FFA8AFA5344BB
:104EB0001FFA82FADCF800208145CAEB124202EBAD
:104EC00023429BB243EA02434FEA224A4CF8043B96
:104ED000DAD255F80B302BB9019B043B9D421A46A0
:104EE0002FD33C61384601F0CBF8002825DB28465B
:104EF0004FF0000C013658F8041BD0F800E08BB2DC
:104F0000ACEB03031FFA8EF213440A0CC2EB1E42F1
:104F100002EB23429BB243EA0243C1454FEA224CD3
:104F200040F8043BE7D255F8242005EB840322B96E
:104F3000043B9D421A460AD33C61304603B0BDE8AB
:104F4000F08F1268043B002ACBD1013CC6E71268FF
:104F5000043B002AF0D1013CEBE70020EEE7000023
:104F60002DE9F04F16461F46446A99B00546CDE933
:104F70000467DDF8948074B9102000F0E3FD024668
:104F8000686220B9EA21AE4BAE4801F0A1FBC0E94E
:104F900001440460C4606B6A196851B15A68012306
:104FA00093404A608B60284600F030FE00226B6A16
:104FB0001A603B1EAFBF0023012223F0004305937C
:104FC000A8BFC8F80030DDF814909F4BB8BFC8F8F0
:104FD000002033EA090319D142F20F73249A1360B7
:104FE000C9F31303334300F08085269B53B9974BD5
:104FF00022E0974B08930833269A1360089819B05B
:10500000BDE8F08F914B08930333F5E7DDE90434F5
:10501000CDE90C34DDE90C0100220023FBF7C4FCD0
:10502000804658B10123249A1360269B002B00F080
:10503000598588481860431E0893DFE716AB019333
:1050400017AB00932846DDE90C2301F0C5F8C9F33E
:105050000A548246002C7ED0DDE90C010D9BA4F29F
:10506000FF34C3F3130343F07F5141F44011CDF8F3
:105070004C800022784BFBF777F86BA3D3E9002331
:10508000FBF72AFA6AA3D3E90023FBF76FF8064679
:1050900020460F46FBF7B6F967A3D3E90023FBF7D9
:1050A0001BFA02460B4630463946FBF75FF80646C8
:1050B0000F46FBF7C1FC00228146002330463946EB
:1050C000FBF77CFC48B14846FBF79CF932463B466F
:1050D000FBF76AFC08B909F1FF39B9F1160F57D887
:1050E000DDE90C015D4B03EBC903D3E90023FBF7BA
:1050F00065FC00284ED0002309F1FF390F93169B61
:105100001C1B631E099349BFC4F1010300230693CE
:10511000002354BF06930993B9F1000F3CDB099BB0
:10512000CDF838904B44099300230A93229B092B16
:105130006CD8052BC4BF043B2293229BC8BF00241C
:10514000A3F10203D8BF0124032B00F28B80DFE818
:1051500003F02D4F4D5BDDE916431C4404F232434E
:10516000202BC3BFC3F1400304F2124009FA03F33A
:10517000C3F12003C6BF26FA00F0184306FA03F075
:10518000FBF730F90123A1F1F871013C139370E7AB
:105190000123B3E70F90B2E7069BA3EB0903069345
:1051A000C9F100030A9300230E93BFE700230B937A
:1051B000239B002B59DC4FF0010B5B46CDF808B068
:1051C000CDF88CB00022686A4260042202F1140615
:1051D0009E4241684FD9284600F0D8FC089000282C
:1051E0004DD102464FF4D5711D4BCDE60123DEE7CC
:1051F00000230B93239B09EB030B0BF10103012B02
:105200000293B8BF0123DDE70123F2E70124002365
:105210000B9422934FF0FF3B00221223CDF808B0ED
:105220002392CFE7AFF3008061436F63A787D23F3C
:10523000B3C8608B288AC63FFB799F501344D33F85
:10524000357300084C7300080000F07F31730008CC
:1052500028730008057300080000F83F4874000830
:10526000AB73000801230B93D4E7DDF88CB05B46E9
:10527000CDF808B0A6E7013141605200A6E76B6A9D
:10528000089A1A60029B0E2B00F2A880002C00F0F6
:10529000A580B9F1000F34DD9A4A09F00F0302EB43
:1052A000C30319F4807FD3E90034CDE910344FEA09
:1052B000291416D0DDE90C01934B0327D3E9082309
:1052C000FBF734FACDE9040104F00F048E4E54B913
:1052D000DDE91023DDE90401FBF728FACDE904013B
:1052E00029E00227F2E7E10708D5DDE91001D6E958
:1052F0000023FBF7F1F8CDE91001013764100836FF
:10530000E5E700F0A580DDE90C01C9F100047D4B63
:1053100004F00F0203EBC203D3E90023FBF7DCF830
:1053200002270023CDE90401774E2411002C40F020
:105330008480002BD2D10F9B002B00F08B80DDE905
:105340000434CDE91034DDE9100100226F4BFBF786
:1053500035FB00287ED0029B002B7BD0BBF1000FD9
:1053600038DDDDE910010022694BFBF7B5F85C463A
:10537000CDE9040109F1FF3801373846FBF742F85F
:10538000DDE90423FBF7A8F80022624BFAF7EEFEF2
:10539000A1F15076CDE910011196002C5DD1DDE927
:1053A000040100225C4BFAF7DFFE02460B46CDE912
:1053B00004233346109AFBF71FFB002840F09E821F
:1053C000DDE90401109A06F10043FBF7F7FA002823
:1053D00040F09282DDE90C34CDE90434179B002BB8
:1053E000C0F25381B9F10E0F00F34F81454B03EB2F
:1053F000C903D3E90034CDE90634239B002B80F2A6
:10540000DB80029B002B00F3D78040F07482DDE943
:1054100006010022404BFBF75FF8DDE90423FBF7B0
:10542000E1FA029C2646002840F04A823123089F78
:1054300009F1010907F8013B46E2E20705D5D6E983
:105440000023FBF749F801230137641008366DE7A4
:10545000022770E7C846029C8FE70899294B214430
:1054600012910B9903EBC403DDE9106753E90223A2
:10547000002955D000202949FBF758F93B46324610
:10548000FAF772FECDE91001089FDDE90401FBF790
:10549000D3FA0446FAF7B6FF02460B46DDE90401EB
:1054A000FAF762FE02460B463034CDE90423DDE90B
:1054B000102307F8014BFBF781FA002874D1DDE9CE
:1054C000042300201149FAF74FFEDDE91023FBF712
:1054D00075FA002840F0B680129B9F423FF47AAFE5
:1054E000DDE9100100220A4BFAF7F6FF0022CDE9B0
:1054F0001001DDE90401064BFAF7EEFFCDE90401E6
:10550000C3E700BF48740008207400080000F03FA3
:105510000000244000001C40000014400000E03F58
:1055200030463946FAF7D8FF129BCDE91001089CA6
:105530001493DDE90401FBF77FFA1590FAF762FF97
:1055400002460B46DDE90401FAF70EFE159B0646FE
:10555000303304F8013B129B0F469C424FF000028F
:1055600024D1DDE91001B34BFAF700FE02460B46E9
:1055700030463946FBF740FA002862D1DDE91023B6
:105580000020AC49FAF7F0FD02460B46304639469A
:10559000FBF714FA00283FF41DAF149F7B1E1493F1
:1055A00017F8013C302BF8D0C1463AE0A24BFAF78D
:1055B00093FFCDE90401BCE7089FDDE90623DDE99F
:1055C0000401FBF7B3F8FBF737FA0446FAF71AFFC2
:1055D000DDE90623FAF780FF04F130060B460246A8
:1055E000DDE90401FAF7C0FD07F8016B089E029B94
:1055F000BE1BB3423AD102460B46FAF7B7FD02464C
:105600000B46CDE90223DDE90623FBF7F5F958BB8C
:10561000DDE90623DDE90201FBF7C6F908B1E10780
:1056200022D42846514600F0F1FA00233B70249B17
:1056300009F101001860269B002B3FF4DFAC1F60CE
:10564000DCE427463B461F4613F8012D392A07D1D3
:10565000089A9A42F7D13022089908F101080A7095
:105660001A7801321A709FE7C846EBE70022724BA6
:10567000FAF732FF02460B46CDE90423002200234D
:10568000FBF792F9002898D0CBE70B9A002A00F09C
:10569000CD80229A012A00F3AF80139A002A00F0ED
:1056A000A78003F233430A9C069F069A01211A44FD
:1056B0000692099A28461A44099200F061FB0646B0
:1056C000002F0CDD099B002B09DDBB42A8BF3B4628
:1056D000069AFF1AD21A0692099AD31A09930A9BBC
:1056E000F3B10B9B002B00F0A980002C10DD31469C
:1056F0002246284600F0FEFB524601460646284652
:1057000000F054FB80465146284600F07FFAC2461E
:105710000A9B1A1B04D05146284600F0EBFB824638
:105720000121284600F02CFB0E9B0446002B40F381
:1057300087801A460146284600F0DCFB229B04467F
:10574000012B40F380804FF00008236904EB8303B2
:10575000186900F0C7FAC0F12000099B184410F046
:105760001F0000F09280C0F12003042B40F38A80D8
:10577000C0F11C00069B074403440693099B0344A5
:105780000993069B002B05DD51461A46284600F07A
:105790000BFC8246099B002B05DD21461A46284654
:1057A00000F002FC04460F9B002B70D021465046AF
:1057B00000F066FC00286ADA002351460A222846D7
:1057C00000F046FA0B9B824609F1FF39002B00F0EE
:1057D0009381314600230A22284600F039FABBF1B2
:1057E000000F064600F39380229B022B57DC8EE0CD
:1057F000169BC3F1360356E7029B5C1E0A9BA3422D
:10580000B7BF0A9B1C1BE21A0E9BBEBF0A949B18D3
:105810000E93029BB8BF0024002BBBBF069B029ACD
:10582000069F9F1AACBF029B00233EE70A9C069F7F
:105830000B9E45E70000E03F000024400A9A6AE71B
:10584000229B012B19DC049BBBB9059BC3F31303FB
:105850009BB9059B23F000431B0D1B0583B14FF043
:105860000108069B01330693099B013309930E9BA4
:10587000002B7FF46AAF01206FE74FF00008F6E7D6
:105880009846F4E73FF47DAF18461C3072E7029B60
:10589000002B36DC229B022B33DDDDF808B0BBF198
:1058A000000F0DD121465B460522284600F0D0F9B5
:1058B00001460446504600F0E3FB00283FF7B6AD32
:1058C000239B089F6FEA03094FF0000821462846F2
:1058D00000F09CF9002E3FF4A4AEB8F1000F05D003
:1058E000B04503D04146284600F090F9314628469D
:1058F00000F08CF995E600242646E1E7C1462646ED
:1059000094E50B9BDDF808B0002B00F0FC80002F25
:1059100005DD31463A46284600F046FB0646B8F11A
:10592000000F5CD02846716800F030F9074628B9AE
:10593000024640F2EA217E4BFFF726BB326906F1B0
:105940000C01023292000C3000F012F901223946AB
:10595000284600F029FBB0460646089B0133029317
:10596000089B5B440A93049B03F001030993029B89
:105970002146504603F1FF3BFFF764FA03464146D8
:105980003033049050460B9300F07AFB3246069079
:105990002146284600F090FBC26807460B9B02BBDD
:1059A0000146504600F06CFB02460B9B39462846E8
:1059B000CDE90B3200F02AF9229B0C9A029F43EAB0
:1059C0000201099B0B430B9B0DD1392B27D0069A63
:1059D000002A01DD049B31338BF8003076E7304636
:1059E000B9E70122E2E70699002904DB2298014386
:1059F0000998014320D1002AEEDD514601222846B4
:105A0000029300F0D1FA2146824600F039FB0028CB
:105A1000029B02DCE0D1DA07DED5392BDAD139235B
:105A20008BF800303B461F4617F8012C013B392A02
:105A300050D001321A7049E7002A03DD392BEED02D
:105A40000133C9E7029A0A9902F8013C8A422AD036
:105A5000514600230A22284600F0FAF8B045824653
:105A60004FF000034FF00A024146284607D100F0EC
:105A7000EFF880460646029B0133029377E700F079
:105A8000E7F83146804600230A22284600F0E0F875
:105A90000646F0E7BBF1000FCCBF5F4601274FF091
:105AA0000008089A1744514601222846029300F044
:105AB0007BFA2146824600F0E3FA0028B2DC02D1EC
:105AC000029BDB07AED43B461F4613F8012D302A5C
:105AD000FAD0FBE6089A9A42A5D1312309F10109CF
